:060000000A128A11122809
:10000800FE00030EF0000408F1000A08F200831253
:1000180003137F08F3000A128A11732B0A128A113C
:100028001528F601F701F801F901DC01DD01DE010F
:10003800DF0183135C30FD000330FE00B230FF00A7
:10004800443084000A128A11072483010A128A1193
:10005800942B4729081EBB2808080F39A800A901B6
:100068002808F8002908F9000A128A11EF210A1253
:100078008A113C3083120313A0000030A1005B08F2
:10008800A301A3075A08A201A2070A128A11DC22B7
:100098000A128A11831203132108DD01DD072008E3
:1000A800DC01DC070A30A0000030A1005D08A301D4
:1000B800A3075C08A201A2070A128A11DC220A120D
:1000C8008A11831203132108AB01AB072008AA0188
:1000D800AA070A30A0000030A1005D08A301A30709
:1000E8005C08A201A2070A128A117F220A128A1149
:1000F800831203132108AF01AF072008AE01AE0732
:100108000A30A0000030A1002F08A301A3072E0881
:10011800A201A2070A128A11DC220A128A1183128A
:1001280003132108AF01AF072008AE01AE07C8309E
:100138000A128A11CA230A128A11831203132E087B
:10014800303E0A128A11DD230A128A118312031320
:100158002A08303E0A128A11DD230A128A118312F4
:1001680003135B08DF01DF075A08DE01DE070130F1
:10017800831203135806590403192E283C30A00093
:100188000030A1005B08A301A3075A08A201A20737
:100198000A128A11DC220A128A1183120313210817
:1001A800DD01DD072008DC01DC070A30A000003093
:1001B800A1005D08A301A3075C08A201A2070A1217
:1001C8008A11DC220A128A11831203132108AD0155
:1001D800AD072008AC01AC070A30A0000030A10030
:1001E8005D08A301A3075C08A201A2070A128A11ED
:1001F8007F220A128A11831203132108B101B10761
:100208002008B001B0070A30A0000030A100310872
:10021800A301A3073008A201A2070A128A11DC224F
:100228000A128A11831203132108B101B1072008A9
:10023800B001B007C8300A128A11CA230A128A11FB
:10024800831203133008303E0A128A11DD230A1282
:100258008A11831203132C08303E0A128A11DD23F7
:100268000A128A117A30F4000030F5000A128A1155
:1002780014240A128A11FF3083120313DA070318B1
:10028800DB0AFF30DB0783120313DB1FBB285F0881
:10029800DB01DB075E08DA01DA0708000A128A11B7
:1002A8002B230A128A1182300A128A11CA230A12CF
:1002B8008A112C308400443083120313A8000408E8
:1002C800A9001430AA002808840083130008AB0092
:1002D800A80A290884002B088000A90AAA0B672904
:1002E8002C300A128A1151230A128A113C308312C7
:1002F8000313A0000030A1005B08A301A3075A085C
:10030800A201A2070A128A11DC220A128A11831298
:1003180003132108DD01DD072008DC01DC070A30B2
:10032800A0000030A1005D08A301A3075C08A2019A
:10033800A2070A128A11DC220A128A1183120313F5
:100348002108C101C1072008C001C0070A30A00068
:100358000030A1005D08A301A3075C08A201A20761
:100368000A128A117F220A128A11831203132108A2
:10037800C301C3072008C201C2070A30A000003029
:10038800A1004308A301A3074208A201A2070A1279
:100398008A11DC220A128A11831203132108C3016D
:1003A800C3072008C201C207C8300A128A11CA232B
:1003B8000A128A11831203134208303E0A128A1164
:1003C800DD230A128A11831203134008303E0A12F1
:1003D8008A11DD230800790883120313A201A207FA
:1003E8007808A101A1072208803AFF0080307F0227
:1003F800031D002A0330210203180A2A0130831240
:100408000313A1070318A20A00302B2A831203132F
:100418002208803AFF0080307F02031D152A07302A
:100428002102031C2D2A831203132208803AFF009D
:1004380080307F02031D222A0B30210203182D2A47
:10044800FF3083120313A1070318A20AFF30A20783
:100458006F2A831203132208803AFF0080307F023C
:10046800031D382A04302102031C472A8312031370
:100478002208803AFF0080307F02031D452A07309A
:100488002102031C6F2A0D30831203132106220454
:10049800031D6F2AA101A2016F2A0130DA07031890
:1004A800DB0A0030DB071E30F4000030F5000A12CA
:1004B8008A1114240800FF3083120313DA07031883
:1004C800DB0AFF30DB071E30F4000030F5000A12AB
:1004D8008A1114240800831203132208003A03190E
:1004E800762A7E2A21080C3A0319512A023A03195E
:1004F8005F2A7E2A080083120313A501A11F8B2AF5
:10050800A009A109A00A0319A10AA501A50AA31F08
:10051800962AA209A309A20A0319A30A0130F40022
:100528007408A506A601A701210820040319CD2AED
:10053800A401A40AA11BAC2A01300310A00DA10D2F
:10054800FF3E031DA12A0130F4007408A4079E2A67
:1005580001300310A60DA70DFF3E031DAD2A21088B
:100568002302031DB92A20082202031CC22A2008DC
:10057800A2022108031CA303A302261401300310BE
:10058800A10CA00CFF3E031DC32A0130A402031DC9
:10059800AC2A25080319D52AA609A709A60A03190A
:1005A800A70A2708A101A1072608A001A00708009B
:1005B80083120313A501A31FE82AA209A309A20A0B
:1005C8000319A30AA501A50AA11FEF2AA009A109D9
:1005D800A00A0319A10A2108200403191C2BA4014D
:1005E800A40AA11B032B01300310A00DA10DFF3E8F
:1005F800031DF82A0130F4007408A407F52A21081D
:100608002302031D092B20082202031C112B20089A
:10061800A2022108031CA303A30201300310A10CAA
:10062800A00CFF3E031D122B0130A402031D032B57
:1006380025080319242BA209A309A20A0319A30A4E
:100648002308A101A1072208A001A00708001E3065
:10065800F4000030F5000A128A1114240A128A11D3
:1006680038300A128A11CA230A128A1108300A126B
:100678008A11CA230A128A1101300A128A11CA235E
:100688000A128A1106300A128A11CA230A128A111A
:100698000E300A128A11CA23080083120313A3001A
:1006A800A401A50124082307A200220884008313BB
:1006B80080080319080024082307A20022088400E0
:1006C80000080A128A11DD230A128A1101308312E6
:1006D8000313A4070318A50A0030A507562B8B138C
:1006E8008B1C7D2B0A128A11F0230A128A118B1097
:1006F800862B0B1D862B0130F6070318F70A0030EE
:10070800F7070B118B17730883120313FF00720886
:100718008A0071088400700E8300FE0E7E0E0900A8
:1007280043308316031381000B168B108B160B11A5
:100738008B1706309F0007309C008501013086002A
:1007480087011F3088000A128A1152210A128A1161
:100758000A128A112D200A128A11AC2B53346834DC
:100768006F347434203443346C346F3463346B34F2
:100778002034543469346D346534723400340034B0
:100788000034003401340034183400348312031365
:10079800A100210887000510051185143D30F400DB
:1007A8000030F5000A128A111424831203138510ED
:1007B800080083120313A1002108870005140511FE
:1007C80085140130F4000030F5000A128A1114244F
:1007D8008312031385100800831203135908580461
:1007E800031DFB2B0130D8000030D9000800013070
:1007F80058065904031D0800D801D90108007E08CD
:100808008A007F08820003240A128A118000840A61
:1008180004087D0603190034FF0A0319FE0A072C91
:100828007708803A83120313A0007508803A2002E3
:10083800031D202C74087602031C142CF601F70102
:020848000800A6
:02400E0071FF40
:00000001FF
