:060000000A128A11122809
:10000800FE00030EF2000408F3000A08F40083124D
:1000180003137F08F5000A128A11AA2A0A128A1104
:100028001528F601F701D601D701D801D901DA015F
:10003800DB01DC01DD01DE01DF01E001E101831309
:10004800C830FD000230FE00D330FF00A03084002D
:100058000A128A1191230A128A110A128A11AF23ED
:100068000A128A11E2000A128A11B023E3008301FE
:100078000A128A11232B83120313E31B08003C3056
:1000880083120313A0000030A1006308A301A30793
:100098006208A201A2070A128A1183210A128A1190
:1000A800831203132108D901D9072008D801D807DA
:1000B8003C30A0000030A1006308A301A307620838
:1000C800A201A2070A128A11E0210A128A118312D8
:1000D80003132108DB01DB072008DA01DA070A30FD
:1000E800A0000030A1005B08A301A3075A08A201E1
:1000F800A2070A128A11E0210A128A118312031335
:100108002108AA01AA072008A901A9070A30A00006
:100118000030A1005B08A301A3075A08A201A207A7
:100128000A128A1183210A128A11831203132108E1
:10013800AC01AC072008AB01AB070A30A0000030C7
:10014800A1002C08A301A3072B08A201A2070A12E9
:100158008A11E0210A128A11831203132108AC01C3
:10016800AC072008AB01AB07C8300A128A11672315
:100178000A128A11831203132B08303E0A128A11BD
:100188007A230A128A11831203132908303E0A12AD
:100198008A117A230A128A117A3083120313A00073
:1001A8000030A1000A128A119E230A128A118312B2
:1001B80003135F085E040319080001305C065D0440
:1001C8000319E128FF30E2070318E30AFF30E307C9
:1001D8003F28831203135708D501D5075608D401C1
:1001E800D4075508803AFF0080307F02031DFE289F
:1001F8000330540203180829013083120313D4076B
:100208000318D50A00302929831203135508803AA8
:10021800FF0080307F02031D132907305402031C9E
:100228002B29831203135508803AFF0080307F0280
:10023800031D20290B30540203182B29FF30831289
:100248000313D4070318D50AFF30D5074E298312A4
:1002580003135508803AFF0080307F02031D3629BA
:1002680004305402031C4529831203135508803AAD
:10027800FF0080307F02031D432907305402031C0E
:100288004E290D308312031354065504031D4E29BD
:10029800D401D501831203135508E101E10754087D
:1002A800E001E00775290A128A113F200A128A1113
:1002B80083120313E001E1011830E2000030E3008B
:1002C8000A128A112F220800013083120313DC005E
:1002D8000030DD00E001E1011830E2000030E30009
:1002E80008005508003A03197A29822954080C3A5B
:1002F80003195729023A0319682982290800831229
:100308000313A601A11F8F29A009A109A00A031997
:10031800A10AA601A60AA31F9A29A209A309A20A4B
:100328000319A30A0130A4002408A606A701A801FE
:10033800210820040319D129A501A50AA11BB02968
:1003480001300310A00DA10DFF3E031DA5290130AA
:10035800A4002408A507A22901300310A70DA80DA1
:10036800FF3E031DB12921082302031DBD292008D2
:100378002202031CC6292008A2022108031CA30389
:10038800A302271401300310A10CA00CFF3E031D8B
:10039800C7290130A502031DB02926080319D92948
:1003A800A709A809A70A0319A80A2808A101A107EB
:1003B8002708A001A007080083120313A601A31FA2
:1003C800EC29A209A309A20A0319A30AA601A60AED
:1003D800A11FF329A009A109A00A0319A10A21084C
:1003E80020040319202AA501A50AA11B072A013008
:1003F8000310A00DA10DFF3E031DFC290130A40030
:100408002408A507F92921082302031D0D2A20081D
:100418002202031C152A2008A2022108031CA30398
:10042800A30201300310A10CA00CFF3E031D162AE5
:100438000130A502031D072A26080319282AA20944
:10044800A309A20A0319A30A2308A101A1072208E4
:10045800A001A007080083120313DE01DF010A12BE
:100468008A11FB220A128A1182300A128A11672322
:100478000A128A112C308400A03083120313A800BA
:100488000408A9001430AA0028088400831300086F
:10049800AB00A80A290884002B088000A90AAA0B27
:1004A800482A2C300A128A1145230A128A11C830A8
:1004B8000A128A1167230A128A1140308400B43064
:1004C80083120313A8000408A9001430AA002808FE
:1004D800840083130008AB00A80A290884002B08AD
:1004E8008000A90AAA0B6B2A40300A128A114523F8
:1004F80008000C308312031356065704031D942A70
:100508005F085E04031D8D2A0130DE000030DF0025
:10051800942A01305E065F04031D942ADE01DF0180
:100528000E3056065704031D08005D085C04031DC1
:10053800A22A0130DC000030DD00080001305C0632
:100548005D04031D0800DC01DD0108008B138B1C12
:10055800BC2A08080F39F000F1017008D6007108AC
:10056800D7000A128A117D220A128A118B10C52A15
:100578000B1DC52A0130F6070318F70A0030F707E4
:100588000B118B17750883120313FF0074088A0078
:1005980073088400720E8300FE0E7E0E0900533429
:1005A80068346F347434203443346C346F346334B7
:1005B8006B342034543469346D3465347234003407
:1005C800003400340034323434340034003400341D
:1005D8000034003400340034003400340034003473
:1005E80000340034003400340034003400341E3049
:1005F80083120313A0000030A1000A128A119E235F
:100608000A128A1138300A128A1167230A128A11CB
:1006180008300A128A1167230A128A1101300A1255
:100628008A1167230A128A1106300A128A1167236F
:100638000A128A110E300A128A1167230800433001
:100648008316031381000B168B108B160B118B1757
:1006580006309F0007309C00850101308600870125
:100668000F3088000A128A112F220A128A11831267
:100678000313061C3B2B0A128A11ED200A128A1159
:100688003B2B83120313A700A501A6012508270702
:10069800A40024088400831380080319080025088F
:1006A8002707A4002408840000080A128A117A2364
:1006B8000A128A11013083120313A5070318A60A28
:1006C8000030A6074A2B83120313A30023088700D0
:1006D8000510051185141E30A0000030A1000A1273
:1006E8008A119E23831203138510080083120313B3
:1006F800A300230887000514051185140030A00005
:100708000030A1000A128A119E2383120313851058
:1007180008007E088A007F0882008D230A128A1149
:100728008000840A04087D0603190034FF0A0319AF
:10073800FE0A912B7708803A83120313A20021083E
:10074800803A2202031DAA2B20087602031C9E2B46
:0A075800F601F70108001834003420
:02400E0071FF40
:00000001FF
