:060000000A128A11122809
:10000800FE00030EF2000408F3000A08F40083124D
:1000180003137F08F5000A128A11562A0A128A1158
:100028001528F601F701F801F901DD01DE01831356
:100038005D30FD000230FE00DC30FF0045308400FA
:100048000A128A11312383010A128A11C32A8312E0
:100058000313DC1BC6283C3083120313A0000030B6
:10006800A1005C08A301A3075B08A201A2070A126A
:100078008A11C5210A128A11831203132108DE018D
:10008800DE072008DD01DD070A30A0000030A100EE
:100098005E08A301A3075D08A201A2070A128A113C
:1000A800C5210A128A11831203132108AA01AA077B
:1000B8002008A901A9070A30A0000030A1005E08A5
:1000C800A301A3075D08A201A2070A128A116821E9
:1000D8000A128A11831203132108AC01AC07200805
:1000E800AB01AB070A30A0000030A1002C08A30127
:1000F800A3072B08A201A2070A128A11C5210A1216
:100108008A11831203132108AC01AC072008AB0144
:10011800AB07C0300A128A11F4220A128A1183121C
:1001280003132B08303E0A128A1107230A128A1178
:10013800831203132908303E0A128A1107230A1270
:100148008A1101308312031359065A04031DB42877
:10015800061CA5280A128A1114220A128A112F28AD
:100168007A30A0000030A1000A128A113E230A1238
:100178008A11FF3083120313DB070318DC0AFF30F0
:10018800DC072B281830DB000030DC0008000A12DE
:100198008A11A6220A128A1180300A128A11F422C0
:1001A8000A128A112D308400453083120313A900E6
:1001B8000408AA001430AB0029088400831300083F
:1001C800AC00A90A2A0884002C088000AA0AAB0BF4
:1001D800E0282D300A128A1184220A128A113C3032
:1001E80083120313A0000030A1005C08A301A30739
:1001F8005B08A201A2070A128A11C5210A128A11F4
:10020800831203132108DE01DE072008DD01DD0764
:100218000A30A0000030A1005E08A301A3075D0812
:10022800A201A2070A128A11C5210A128A11831291
:1002380003132108C201C2072008C101C1070A30FF
:10024800A0000030A1005E08A301A3075D08A20179
:10025800A2070A128A1168210A128A11831203134B
:100268002108C401C4072008C301C3070A30A0003D
:100278000030A1004408A301A3074308A201A20774
:100288000A128A11C5210A128A118312031321083E
:10029800C401C4072008C301C307C0300A128A1169
:1002A800F4220A128A11831203134308303E0A12F9
:1002B8008A1107230A128A11831203134108303E58
:1002C8000A128A110723080083120313A601A11F2B
:1002D8007429A009A109A00A0319A10AA601A60A5E
:1002E800A31F7F29A209A309A20A0319A30A01309F
:1002F800A4002408A606A701A801210820040319C0
:10030800B629A501A50AA11B952901300310A00D46
:10031800A10DFF3E031D8A290130A4002408A5076A
:10032800872901300310A70DA80DFF3E031D96294C
:1003380021082302031DA22920082202031CAB293D
:100348002008A2022108031CA303A30227140130DA
:100358000310A10CA00CFF3E031DAC290130A5021F
:10036800031D952926080319BE29A709A809A70A64
:100378000319A80A2808A101A1072708A001A007B6
:10038800080083120313A601A31FD129A209A309F8
:10039800A20A0319A30AA601A60AA11FD829A0091F
:1003A800A109A00A0319A10A210820040319052A92
:1003B800A501A50AA11BEC2901300310A00DA10D70
:1003C800FF3E031DE1290130A4002408A507DE290A
:1003D80021082302031DF22920082202031CFA29FE
:1003E8002008A2022108031CA303A3020130031062
:1003F800A10CA00CFF3E031DFB290130A502031D23
:10040800EC29260803190D2AA209A309A20A03192F
:10041800A30A2308A101A1072208A001A007080038
:10042800790883120313A101A1077808A001A00786
:10043800482A0130DB070318DC0A0030DC075C08B7
:10044800803AFF0080307F02031D2C2A19305B029E
:10045800031C322A83120313DB01DC01831203130A
:100468000614061C0800322AFF30DB070318DC0AD2
:10047800FF30DC07DC1F442A1830DB000030DC00CA
:100488000614061C0800442A2108003A03194D2ABC
:10049800552A20080C3A03191D2A023A0319382A4A
:1004A800552A08008B138B1C6D2A08080F39F00099
:1004B800F1017008F8007108F9000D307806790428
:1004C800031D6B2A0A128A111A230A128A118B1029
:1004D800762A0B1D762A0130F6070318F70A003032
:1004E800F7070B118B17750883120313FF007408A5
:1004F8008A0073088400720E8300FE0E7E0E0900C7
:1005080083120313A500A601A70126082507A40046
:100518002408840083138008031908002608250787
:10052800A4002408840000080A128A1107230A126A
:100538008A11013083120313A6070318A70A003093
:10054800A707892A38300A128A11F4220A128A1156
:1005580008300A128A11F4220A128A1101300A128A
:100568008A11F4220A128A1106300A128A11F42218
:100578000A128A110E300A128A11F4220800443035
:100588008316031381000B168B108B160B118B1718
:100598000130860087010F3088000A128A11CB20AB
:1005A8000A128A110A128A112B200A128A11D62AD3
:1005B800543449344D3445343A340034003400342A
:1005C8000034003400340034003400340034003483
:1005D800003400340034003401340034183400345A
:1005E80083120313A30023088700861206138617B5
:1005F8000130A0000030A1000A128A113E238312A4
:1006080003138613080083120313A300230887002B
:100618008616061386170130A0000030A1000A12C2
:100628008A113E23831203138613080083120313CF
:100638005A085904031D252B0130D9000030DA006F
:100648000800013059065A04031D0800D901DA01CF
:1006580008007E088A007F0882002D230A128A116A
:100668008000840A04087D0603190034FF0A031970
:10067800FE0A312B7708803A83120313A20021085F
:10068800803A2202031D4A2B20087602031C3E2BC7
:06069800F601F701080065
:02400E0071FF40
:00000001FF
